:020000041000EA
:1000000000B5324B212058609868022188439860DF
:10001000D860186158612E4B002199600221596106
:100020000121F02299502B49196001219960352056
:1000300000F044F80222904214D00621196600F024
:1000400034F8196E01211966002018661A6600F04E
:100050002CF8196E196E196E052000F02FF8012189
:100060000842F9D1002199601B49196000215960AB
:100070001A491B48016001219960EB211966A021F2
:10008000196600F012F800219960164914480160C1
:100090000121996001BC002800D000471248134993
:1000A000086003C880F30888084703B5996A0420EC
:1000B0000142FBD001200142F8D103BD02B5186610
:1000C0001866FFF7F2FF186E186E02BD00000240BE
:1000D000000000180000070000035F00212200005C
:1000E000F4000018222000A00001001008ED00E03C
:1000F00000000000000000000000000074B24E7A12
:1001000000200420F7010010C3010010C5010010F9
:10011000C1010010C1010010C1010010C101001097
:10012000C1010010C1010010C1010010C701001081
:10013000C1010010C1010010C9010010CB01001065
:10014000CD010010CD010010CD010010CD01001037
:10015000CD010010CD010010CD010010CD01001027
:10016000CD010010CD010010CD010010CD01001017
:10017000CD010010CD010010CD010010CD01001007
:10018000CD010010CD010010CD010010CD010010F7
:10019000CD010010CD010010CD010010CD010010E7
:1001A000CD010010CD010010CD010010CD010010D7
:1001B000CD010010CD010010CD010010CD010010C7
:1001C00000BE00BE00BE00BE00BE00BEEFF3058054
:1001D000103800BEF2EB8871387200105C720010AB
:1001E0003402001090A31AE700201F49086006C8D7
:1001F00081F3088810471D48006800282FD10DA4FE
:100200000ECC002902D000F012F8F9E71849194A7B
:10021000002000E001C19142FCD1174988471749ED
:1002200088471749884700BEFDE701C901C29A42C5
:10023000FBD370475C720010C00000201403002044
:10024000B07400100000042000000420B0740010FE
:10025000001004200010042000000000704709482E
:1002600002F0E8FE0047000008ED00E0000000D0CA
:1002700018030020080A0220451D00100903001081
:10028000051D00105756000006005250ABB36053D6
:10029000B463001006005250861C0302C4630010B1
:1002A000060052505422A29DE063001005005250F7
:1002B000DE65F468B0740010F8B5C046064807491A
:1002C000091A8B10C90FC91810B5491003D0044B77
:1002D000002B00D0984710BD140300201403002009
:1002E00000000000054B10B5002B03D00449054861
:1002F00000E000BFFFF7E2FF10BDC04600000000B5
:10030000A0040020285A001010B503F081FF044813
:1003100003F042FFFA20800000F04DFFF7E7C046EF
:10032000285A001010B58300084A944663441A689E
:1003300040246240803414408022520113431C60E8
:10034000C000034B9C466044416010BD04C00140A6
:1003500000400140034B1B6802201840431E984197
:10036000C0B2704700C00640EFF3108072B6034B76
:100370001B68002BFBD0BFF35F8F70472C0100D0B0
:10038000BFF35F8F024B00221A6080F31088704722
:100390002C0100D0F8B506000C001500FFF7E4FFB3
:1003A000E308F718F15C07222240012393400B4237
:1003B00005D1DBB20B433B70FFF7E2FFF8BD210034
:1003C000280001F03BFD0000002307E0054A9A18D1
:1003D0009200BFF35F8F0021116001331F2BF5D90D
:1003E0007047C04640000034054A1078431CDBB219
:1003F0001370172B02D9130010221A707047C046D1
:1004000030020020074B9B68103080001950BFF36A
:100410005F8FBFF35F8F044B0021196082F3108858
:100420007047C04600ED00E0240100D010B50388FD
:10043000DA0A1C2A05D15B055B1502335B00C01884
:1004400010BD034B034A0448B12101F05FFCC046D4
:10045000385A0010086C0010505A001010B5091AD4
:100460000B1F0A4A88180A4A904208D8C90706D4BE
:100470005B105B055B0D0748184380B210BD064B4F
:10048000064A0748A32101F041FCC046FC070000D2
:10049000FE0F000000E0FFFF945A0010FC6B0010FC
:1004A000505A001010B5091A04394A08090B08D12E
:1004B0004905490D064B0B430380064B134343800C
:1004C00010BD054B054A0648AB2101F01FFCC04694
:1004D00000F0FFFF00F8FFFFC45A0010D06B0010BF
:1004E000505A001001238340034A10681840431EED
:1004F0009841C0B27047C04600E100E0002904D036
:10050000034B1860034B18607047034B1860FBE700
:1005100080E200E000E100E080E100E010B50123AE
:1005200083401800FFF7EAFF10BD0000024B9B68F4
:1005300010308000C058704700ED00E070B5040036
:100540000D00EFF3108672B60C4B1B68002BFBD02E
:10055000BFF35F8F2000FFF7E9FF094B984201D0FE
:10056000A84205D1320029002000FFF74BFF70BDE3
:10057000044B054A0548862101F0C8FB240100D040
:10058000CD010010D45A0010186C0010505A001001
:10059000F0B5CE46474680B583B006000D00EFF3B8
:1005A000108872B64F4B1B68002BFBD0BFF35F8FD8
:1005B0004D4B9A6834001034A300D7584B4B9F42E0
:1005C00007D0AF4200D18BE00197494BFB1A2F2B8C
:1005D00009D9424639003000FFF714FF03B0C0BC10
:1005E000B946B046F0BD3000FFF77CFF81460021E0
:1005F0003000FFF793FFBFF35F8FEFF30581002912
:1006000001D08C4211D10123019C9C430020A3689E
:10061000AB4212D00622A256002A0DDB53009B18D3
:100620009B00334A2000D418F1E7324B324A36217E
:100630003248FF3101F06AFB2000AB4249D1062568
:100640006557002D2BDB2A4B6A00521992009B182C
:100650009A68A260DA79E2719B795BB2A371002B90
:100660000FDA2748A080224B6A00521992009B188B
:10067000244A11789971157049463000FFF74EFFF2
:10068000A7E7680040198000194BC0180430FFF735
:10069000CDFE0100231D1800FFF7E0FEE2E7002970
:1006A00012D100280ED0FF238371174B8380154988
:1006B0000B78A3710E4A154BA41A644163431B0DBA
:1006C0000B70D9E7094FF2E71149201DFFF7EAFE49
:1006D000D2E7104B084A6A210848FF3101F016FBA7
:1006E000024F76E7240100D000ED00E0CD010010BC
:1006F000340200200C5B0010E86B0010505A001010
:1007000001BD0000050A022001BDFFFFAAAA0000EA
:100710006E020020405B001070B5012202432E4B98
:10072000D31A2F2B28D8EFF30583002B2BD0EFF310
:10073000108C72B6294909680029FBD0BFF35F8F7E
:10074000254C274905002D1B6D416943090D4CB20D
:10075000244989689B00C95891421BD00021032974
:1007600032D81D4B4A00521892009B189B795BB2FD
:10077000A3421FD00131F2E71B4B1C4AC7211C4882
:10078000490001F0C3FA1B4B184A92211848FF3167
:1007900001F0BCFA134A92681749D150174B1A78E6
:1007A00082711C70BFF35F8F0C4B00221A608CF3B8
:1007B000108870BD084B4A005518AD005D19FF2622
:1007C000AE710F4AAA80E9E70E4B084AD1210848CA
:1007D000490001F09BFAC04634020020240100D0F9
:1007E000AAAA000000ED00E0485B0010B46B001006
:1007F000505A0010705B0010CD010010050A022055
:1008000001BDFFFF7C5B00100022044B02E00449A5
:1008100002C30132072AFAD97047C04600E400E05B
:1008200080808080024B9C46614489000160704753
:100830004000003410B50400FFF7D6FD0100200091
:10084000FFF7F0FF01235B426360BFF35F8F10BDD2
:1008500010B50400FFF7C8FD01002000FFF7E2FF1C
:1008600001235B42636000232372BFF35F8F10BDDF
:10087000084B5B6A994209D8064A926A824207D2BB
:10088000994201D0012002E0002000E000207047E2
:100890000120FCE70040054010B500290AD003689C
:1008A0001B7B8B4206D38068054B9C466144090143
:1008B000401810BD034B044A04483C2101F026FABD
:1008C000FFFFFF0F185C0010286D00103C5C00104B
:1008D000F8B504001700FFF7DFFF06684568390028
:1008E0002000FFF7D9FF026843680120AB4201D81E
:1008F00002D00020C0B2F8BDB242FBD8F9E7000038
:1009000010B5002B02DB0260436010BD024B034AAE
:1009100003483F2101F0FAF9785C0010F46C0010F4
:10092000945C001010B582B0040004980599121868
:100930004B41002B09DB6846FFF7E2FF009A019B61
:1009400022606360200002B010BD01225242014BC0
:10095000F1E7C046FFFFFF7F10B5002908D0037BF9
:100960008B4205D300684B005B18033BC01810BDD9
:10097000024B034A0348682101F0C8F9E05C00100B
:10098000D06C0010FC5C001010B5437B8B4201D191
:10099000012010BDFFF7E0FF8378002B01D100207C
:1009A000F7E70120F5E770B50400857B002D01D144
:1009B000280070BD2900FFF7CFFF4378A373002BF9
:1009C00000D1E3730023837043700370F0E70000ED
:1009D000F8B506000C001500FFF7BEFF0700002C5D
:1009E0000DD0002D11D0AC4215D029003000FFF7FA
:1009F000B3FF84703B78002B13D13D70F8BD0A4BD8
:100A00000A4A0B486F2101F081F90A4B074A08484E
:100A1000702101F07BF9084B044A0548712101F06F
:100A200075F943703D70E9E74C5D0010AC6C001047
:100A3000FC5C0010585D0010645D001070B506008D
:100A40000D001400002914D0002A14D043688068D7
:100A50009847002806D0220029003000FFF7B8FF91
:100A6000280007E02A0021003000FFF7B1FF200036
:100A700000E0100070BD0800FCE7000070B5040045
:100A80000D1E0CD0FFF768FF0023837043700370C6
:100A9000617B2A002000FFF7D1FF607370BD034B1C
:100AA000034A0448A52101F031F9C0467C5D0010DD
:100AB000C06C0010FC5C001070B504000D1E0FD05F
:100AC000FFF762FF00280BD1E17B00290ED1A37B49
:100AD000002B03D1E37B002B0DD1A573E57370BD13
:100AE000084B094A0948F62101F010F92000FFF7E8
:100AF00033FF4570EBE7064B034A0448FB2101F046
:100B000005F9C046805D00109C6C0010FC5C001074
:100B1000A45D001010B5002907D003681B7B8B4231
:100B200003D3C0680139401810BD034B034A044881
:100B3000412101F0EBF8C046185C0010886C0010F1
:100B40003C5C001070B505000C00080000F0BEFC15
:100B50000949200000F0FEFBFFF746FC074B9C46CE
:100B60006044800068602C75D0231B061B786B7571
:100B7000034BA400E55070BD610C00104000003430
:100B8000B804002010B582B0040000F0A5FB0200FC
:100B90000B006846FFF7B4FE009A019B2260636079
:100BA000200002B010BD70B584B0040016001D0016
:100BB00002A8FFF7E7FF029A039B00960195200029
:100BC000FFF7B0FE200004B070BD0000F0B583B0A8
:100BD000070001921D000AAB1C780BAB1E78002C9D
:100BE0000BD000682100FFF7CFFE002809D0194B79
:100BF000194A1A48672101F089F80068FFF7D3FE07
:100C00000400002C02D1200003B0F0BD2100380008
:100C1000FFF742FE019B03604560089B8360099BD0
:100C2000C36038682100FFF729FFA042EBD1387D6F
:100C3000019A2B0000F0D6FB051E01D0002E04D037
:100C40000C9B002BDFD01D70DDE73868210000F021
:100C500083FDF5E7B85D0010DC6C00103C5C001013
:100C6000F0B5DE4657464E464546E0B58FB00B9090
:100C70000021794B8200D458894683E02900200066
:100C8000FFF70AFE804602684368921BBB41002BB7
:100C900009DD43461A685B680B9800F0A3FB00234C
:100CA000984600268AE0002B01D1002AF1D10021CC
:100CB000584600F047FD0700A84215D143461A6880
:100CC0005B680892099343469E68DB689846002E4D
:100CD00010D029002000FFF71DFF037899461B0262
:100CE0001F432761002069E05C4B5D4A5D488E210F
:100CF00001F00CF85C4B5A4A5A48922101F006F870
:100D00002369002B00D177E0BB4219D106980799DF
:100D1000002342428B4100920193089A099B0CA840
:100D2000FFF700FE0C9A0D9B002104910131039105
:100D300002954146019100962000FFF747FF16E01B
:100D40004A4B474A4748A12100F0E0FF069A079B1B
:100D5000002B01D1002A52D120682900FFF7ACFEF8
:100D600029002000FFF7D6FE03780133037000232B
:100D700023616268BFF35F8F13608AF310880120DC
:100D8000002861D00CA8FFF7FDFE0C9E0D9F0022ED
:100D90000023089209936268EFF3108A72B6136811
:100DA000002BFCD0BFF35F8F23689B465D7B002D3B
:100DB00000D063E700239846002600206368BFF355
:100DC0005F8F00221A608AF31088002ED8D04B461D
:100DD0001F022F4341463800B047069007916268D2
:100DE000EFF3108A72B61368002BFCD0BFF35F8F4D
:100DF000079B002B00DA83E7079B002BA6DD236906
:100E0000002BA9D0BB4219D10CA8FFF7BBFE0C9A4E
:100E10000D9B06980799009001910CA8FFF782FDA1
:100E20000C9A0D9B002104910131039102954146DA
:100E3000019100962000FFF7C9FE98E70B4B084A86
:100E40000848A42100F062FF0FB0F0BCBB46B246D8
:100E5000A946A046F0BDC046B8040020E05D0010E1
:100E60000C6D00103C5C0010F85D0010045E00107A
:100E700010B5084B1A68EFF3108172B61368002B97
:100E8000FCD0BFF35F8F034803F0EAFC0020002191
:100E900010BDC0466809002010B50C4B5B68002BE4
:100EA00004D00B480A21FFF7BDFC10BD074C094ACE
:100EB00020682300102100F0B0FB032000F000FAAE
:100EC00003212000FFF73EFEEBE7C0467C02002036
:100ED00068090020D108001010B5064B5B68002B94
:100EE00001D0044810BD044B044A05485E2100F0BF
:100EF0000DFFC0467C020020405E0010706C0010A8
:100F00003C5C0010F0B5DE4657464E464546E0B51F
:100F10008DB0060090461F00169B9A46179B994677
:100F200018AB1B780793272302AA94466344002238
:100F30001A7021E001003000FFF7ECFD00783CE082
:100F40000698002B5CD0079B002B59D04946D04710
:100F500004000D0003000B4359D0002940DB08A812
:100F6000FFF710FE089A099B0094019508A8FFF767
:100F7000D9FC089B9846099F7268EFF3108B72B6F4
:100F8000136859424B41D9B20691002BF8D1BFF3F7
:100F90005F8F273302AA944663440493002303938C
:100FA00002934B4601935346009342463B00300068
:100FB000FFF70CFE0400051EBCD17368BFF35F8F02
:100FC000002119608BF31088002D17D0272302AA67
:100FD000944663441B78002BB2D100022043B0E753
:100FE00000236242AB410092019342463B0008A8B5
:100FF000FFF798FC089B9846099FBDE701204042F7
:101000000DB0F0BCBB46B246A946A046F0BD06985E
:10101000F6E7F0B5C64600B584B005008846160070
:101020001F000AAB1C78FFF757FF02940197009648
:101030002A004346FFF766FF04B080BCB846F0BD07
:10104000F0B5C64600B505000C1E42D04268EFF36D
:10105000108772B61368002BFCD0BFF35F8FE6B227
:101060002B68984631001800FFF78EFC00282AD024
:101070002B69A34213D0240AE4B231002800FFF701
:1010800049FD0378A34211D000206B68BFF35F8F46
:1010900000221A6087F3108880BCB846F0BD0E4B62
:1010A0000E4A2C210E48FF3100F030FE3100404640
:1010B00000F052FB0028E8D10A4B084A9921084861
:1010C000490000F023FE2B69A342DED100232B61EF
:1010D000DBE70020E0E7C046645E0010586C0010BB
:1010E0003C5C0010885E001010B50400FFF7F4FEB1
:1010F0002100FFF7A5FF10BD30B587B004000D003B
:10110000EFF30583002B20D196225242D3171219F8
:101110006B418B4202D803D1824201D900220023C5
:1011200004A8FFF7EDFB02A8FFF72CFD0298039936
:10113000049A059B121A8B41002B0BDC08D020006F
:10114000290000F0D5F807B030BD114800F076FE58
:10115000002AF4D00F4A0498059900230093FFF762
:1011600058FF00280DDAEAE70B4B1A68EFF31081FD
:1011700072B61368002BFCD0BFF35F8F064803F0F4
:101180000BFB04980599FFF773FB0028ECD0D6E71A
:101190008C5E0010710E00106809002000B583B04D
:1011A00002000B006846FFF7FEFC00980199FFF76C
:1011B000A3FF03B000BD10B5FA2292000023002166
:1011C00002F0CAFDFFF7EAFF10BD000030B583B0A2
:1011D00005000C00EFF30583002B0FD10B4A002311
:1011E0000093FFF716FF00280BDD20BFFFF77CFF01
:1011F00028002100FFF73CFB03B030BDFFF738FBB0
:10120000FAE728002100FFF733FBF5E7710E001025
:1012100010B5002B02DB0260436010BD024B034A95
:1012200003483F2100F072FD785C0010506D001003
:10123000945C001070B5EFF305801038EFF3108C5C
:1012400072B6194B1B68002BFBD0BFF35F8F0122D6
:101250001300834015494B6315490B601549097804
:101260000C00C440224213D0104A546A124A85002E
:10127000AA58944205D3114AAA580E4C994321709A
:1012800007E00A4A031D9B0099589950002200E08C
:101290000022BFF35F8F044B002119608CF310888C
:1012A000002A00D0904770BD280100D000400540C2
:1012B0003C700540060A02206C090020180400203A
:1012C00010B50100024A034B1800FFF763F810BD88
:1012D000DC5E0010040A0220044B5B6A034A906A39
:1012E0001900536A9942F9D17047C0460040054041
:1012F000084B5B6A01E0074B5B6A8B42FBD301E062
:10130000044B5B6A8B4203D1024B9B6A8342F7D347
:101310007047C04600400540F0B583B004000D00A2
:10132000FFF7DAFF06000F0022002B0092197B4125
:10133000994202D804D1904202D901225242D317D5
:101340006846FFF765FF00980199FFF7D1FF03B0EA
:10135000F0BD000070B504000E00EFF3108572B60A
:101360001B4B1B68002BFBD0BFF35F8F002E1CD0E4
:101370002000FFF7DBF8174B83420BD01900200049
:10138000FFF7DCF801212000FFF7C8F80123A34094
:10139000114A1360114BA400E650BFF35F8F0C4B52
:1013A00000221A6085F3108870BD0C4BA20000214A
:1013B000D1500122A2400A490B7893430B70054992
:1013C0002000FFF7E5F800212000FFF7A7F8E4E789
:1013D000280100D0351200103860054018040020A4
:1013E000060A0220F0B5DE4600B584B00400150000
:1013F00001921E000293FFF76FFF03958E4202D801
:101400004ED185424CD9EFF3108B72B6274B1B6837
:10141000002BFBD0BFF35F8F254A17780125A5402D
:10142000EBB23B431370234B5D63221D9200019985
:10143000D150214AA100029888501B6A2B4212D138
:101440001C4B1B6C2B4208D00020BFF35F8F174B47
:1014500000221A608BF3108823E0184B184A1948B1
:10146000C52100F053FCFFF737FF8E4214D802D19C
:10147000039B834210D80E4B1B78BB420ED00D4B02
:101480001D625D631F222240012393400E4A1360B8
:10149000074B1F700120D8E70020D6E70120D4E7D2
:1014A000012004B080BCBB46F0BDC046280100D07E
:1014B000060A0220004005406C090020005F001071
:1014C000346D0010245F001080E200E0EFF3108C18
:1014D00072B60B4B1B68002BFBD0BFF35F8F012351
:1014E0008340084A136208490A789A430A70BFF396
:1014F0005F8F034B00221A608CF310887047C04640
:10150000280100D000400540060A022010B500293D
:1015100008D0037B8B4205D300684B005B18033B6C
:10152000C01810BD024B034A0348682100F0EEFBCF
:10153000E05C0010A86D0010FC5C0010F8B506001F
:101540000C001500FFF7E2FF0700002C0DD0002D66
:1015500011D0AC4215D029003000FFF7D7FF8470BE
:101560003B78002B13D13D70F8BD0A4B0A4A0B485B
:101570006F2100F0CBFB0A4B074A0848702100F0AE
:10158000C5FB084B044A0548712100F0BFFB4370BE
:101590003D70E9E74C5D0010946D0010FC5C00109C
:1015A000585D0010645D001070B506000D00140059
:1015B000002914D0002A14D0436880689847002876
:1015C00006D0220029003000FFF7B8FF280007E00E
:1015D0002A0021003000FFF7B1FF200000E01000DA
:1015E00070BD0800FCE770B50500002343730133AC
:1015F0008373037BC373012406E021002800FFF7F7
:1016000085FF0134E4B24470297BA142F5D828005B
:10161000FFF77CFF0023437070BD10B5017342607B
:101620008360FFF7E0FF10BDF0B5C64600B50500CA
:101630000C1E03D1200080BCB846F0BDFFF766FF4A
:101640004678002EF6D031002800FFF75FFF47787C
:1016500000239846437021002800FFF757FF4346B8
:101660004370320021002800FFF79EFF040039007C
:101670002800FFF7D9FF020021002800FFF794FFA0
:101680000400D7E7F0B5C64600B504000D0017000A
:10169000002927D0FFF73AFF4378002B28D1837821
:1016A000002B2BD101782000FFF7BEFF06008046FB
:1016B000002F0AD0E17B002926D1A37B002B03D188
:1016C000E37B002B25D1A573E5734346002B26D180
:1016D00029002000FFF71AFF00234370300080BC70
:1016E000B846F0BD114B124A1248382100F00EFBEB
:1016F000114B0F4A0F483A2100F008FB0F4B0C4AE0
:101700000C483B2100F002FB2000FFF7FFFE457074
:10171000D3E70B4B064A0748422100F0F7FA3100A5
:101720002000FFF7F3FE00238370D1E76C5F001009
:10173000806D0010745F0010B45F0010DC5F00105B
:10174000A45D001070B504000A00457B2900FFF776
:1017500099FF6073280070BD70B506000C1E40D064
:10176000437B8B4207D0FFF7D1FE0500817800292B
:1017700006D1002036E00121FFF7E4FF012031E02F
:101780003000FFF7C3FE0178A1420DD03000FFF713
:10179000BDFE4178A1420AD00029F7D1124B134A6D
:1017A00013486B3100F0B2FA6B78037001E06B788C
:1017B00043700023AB706B70012221003000FFF7F3
:1017C00061FF0200717B814205D03000FFF7ECFE23
:1017D0007073012006E0074B044A0548712100F0B0
:1017E00095FA002070BDC0467C5B0010686D00104B
:1017F000745F00100060001070B5046BE30701D443
:10180000200070BD02003032C0239B0113430A4AFE
:101810001A60456A836AAD01ED18AD02062000F03A
:10182000BDF9064901F05AFC0100280001F056FC00
:101830000021FFF771FDE3E7010300004E0E0000F9
:1018400070B504000E001500FFF7D6FF22002C3201
:10185000E36A5E40354080235B0113431D602063D3
:1018600070BD000070B505000C00062000F096F970
:10187000C000210001F032FCC60908D00E4B9E4288
:1018800016D87F230340013334005E0800E00124B2
:101890006C62AE62002200212800FFF7D1FF062013
:1018A00000F07CF98000A101891901F017FC70BDDE
:1018B0000026024CECE7C046FEFF0000FFFF0000E0
:1018C00010B505394901013AD2001143002B09D066
:1018D00002220A43012B07D0002111436E22FFF799
:1018E000AFFF10BD0022F4E70421F6E7002909D07C
:1018F0000A22064B9C46604443425841044B400038
:10190000C252704780225200F3E7C0460080FCBFFD
:101910007C09002070B505000C00062000F03EF99F
:10192000061E27D0164B9D4226D08022D203154B8F
:101930001A60154B1A60154B9B6811009943FAD138
:1019400000212800FFF7D2FF21002800FFF78AFFBF
:1019500006000023012208212800FFF7B1FF2A001A
:101960002C3280239B01134310221A60084B2B63F7
:101970000323AB64300070BD80221204D7E7C04659
:101980000080034000E0004000F0004000C0004044
:1019900001030000F8B5DE4657464E464546E0B521
:1019A00006000F0015000A9A934250D31A0E924671
:1019B0001B0298460A9A00234046514601F0CCFB90
:1019C00081467400A419A4002F4B9C4664446368AC
:1019D000834200D26060331FDBB29B46012B3CD9AF
:1019E000C0239B012343802212011A60274BB200BF
:1019F000D158002907D0586901F070FB013043002D
:101A00001B18033BFDD26D0123685D40E0222A4094
:101A100080235B0123431A605A46012A28D9802378
:101A20009B012343802212011A604B4663604A46A1
:101A300000234046514601F08FFB144BB6009851ED
:101A40000120F0BCBB46B246A946A046F8BD104BEB
:101A5000104A1148332100F059F9012FC0D1C02399
:101A60009B01234303221A60A368DB07FCD5CAE766
:101A70002168794003220A401A60A3680125BD400D
:101A80001D42FAD0CBE7C046008000403004002061
:101A900020600010B46D00103460001030B583B0C9
:101AA0000C2000F011F9FEF755FC00280DD00023A2
:101AB00004E02E4A99002E4888500133092BF8D9AA
:101AC0002A4B2C4A5A6203B030BD2B4B00229A6736
:101AD00000F002F9294B01221A60274B5B6C012BA5
:101AE000FBD1274B03221A60234B9B6B012BFBD1AD
:101AF000013300930433234A0121234800F054F8B2
:101B000005230093214A0121214800F04DF8214B83
:101B10000093002202210420FFF73CFF1E4D009598
:101B20002B00002201210520FFF734FF104C009408
:101B30002300002200210720FFF72CFF0094230040
:101B4000002200210820FFF725FF0A4B0093230005
:101B5000002200210920FFF71DFF00952B00002225
:101B600000210620FFF716FFADE7C0463004002035
:101B7000006CDC021BB70000008000403CB000405D
:101B800030B00040002F685900800240008C86472A
:101B900000C00240001BB70040597307014B800092
:101BA000C058704730040020F0B5C64600B50400A8
:101BB0000E0017001D00374801F090FA8046364BA2
:101BC000FA18364B9A4239D80100380001F086FAEB
:101BD0000200103A98235B009A4235D86B1E062B00
:101BE00038D8069B013B062B34D83F09474537D3ED
:101BF0002D04069B1B031D432368002B36DB284B5B
:101C00009C4244D080235B01264A1360264A13601D
:101C1000264A926819009143FAD12660A060221DDD
:101C2000C0239B01134321221A602268002AFCDA98
:101C3000E56008221A6080BCB846F0BD1C4B1D4A06
:101C40001D48112100F062F81C4B1A4A1A4819214C
:101C500000F05CF81A4B174A17481C2100F056F8A0
:101C6000184B144A1448232100F050F822683F23EF
:101C70001340B342C3D1A3681B051B0D8342BED1E1
:101C8000E368EE22D2021340AB42B8D1D3E78023FF
:101C90009B01B9E7001BB70080E84BD380F8A9325D
:101CA00000C0024000E0004000F0004000C00040E2
:101CB0007C600010C46D0010DC600010206100101A
:101CC0003C6100108861001080239B000343014A9F
:101CD000D362704700800540064BAA2212011A60A9
:101CE0002F22DA60044B054A1A60024B5B68002B16
:101CF000FBDA7047004002400060024000B0FA008A
:101D000000BEFDE710B5FFF7FBFF000030B583B064
:101D10000D001900002A0BD0074B084C01920093CC
:101D20002B000200200002F067FA0120FFF7E8FF15
:101D3000034B1A00F1E7C046A4610010B461001023
:101D4000B061001070B52B4B2B4A1A602B4B2C4AFC
:101D50001A602C4B9A682A4B9343FAD12A4C01E023
:101D600008CC9847294B9C42FAD3FFF797FE234BA8
:101D7000274A1A60234B9B68DB43DB01FAD1254BD2
:101D800040229A675A671A67DA66234C09E0234BA8
:101D9000234A24488721FFF7B9FF2000FEF74AFDB8
:101DA0000834214B9C4209D22368002BF5D0012B2B
:101DB000EDD12000FEF74CFD0C34F2E71B4DA96875
:101DC0001B4CC022200002F087F8AC60EFF30583C3
:101DD000002B00D000BEFEF7F7FAFEF715FDFFF767
:101DE0005BF8144C01E008CC9847134B9C42FAD3A3
:101DF00070BDC04600E00040BFCDFBFE00F00040DB
:101E0000FE7F3C0000C00040FC0200200C030020CC
:101E1000FFFFFF0100F00140EC020020E461001030
:101E2000D06D001004620010FC02002000ED00E004
:101E3000000000200C030020140300200FB400B5A4
:101E400083B0084802F0A8F9049B002B07D005A92D
:101E50000191180002F0B0F9034802F09DF9012049
:101E6000FFF74EFF4C6200105C620010704710B527
:101E7000002802D00B684968984710BD0100002077
:101E800007E083001B185B00501C08601078C01826
:101E900030380A681378303BDBB2092BF1D9704730
:101EA000F0B5DE4657464E464546E0B583B093460C
:101EB0001F000C9B9A460D9C0E9B99460F9B9B07FF
:101EC00003D0B8460F00060022E00192A3468846E0
:101ED0004E46B9460700B44207D2551C4B46414610
:101EE0002020B84701342A00F5E73D004F465C4604
:101EF000019B9B46B1464646B84637002E0007E098
:101F0000013C551C5346185D43463900B0472A0032
:101F1000002CF5D135003E0047460F9B9B0707D4A8
:101F2000100003B0F0BCBB46B246A946A046F0BDC7
:101F3000B0464E46B9462F005D46531BB342EFD222
:101F4000541C4B4641462020B8472200F5E7F0B527
:101F5000CE46474680B585B0944698460C9D0D9C6C
:101F60000EAB1B789946109A119B129EB7071CD492
:101F7000002B0CD0F7070AD54F46002F02D10C37A3
:101F8000374204D0013B02E030272F550134944200
:101F900001D21F2CF8D9F70707D59C4205D21F2C78
:101FA00003D830272F550134F5E7F70612D577050A
:101FB00005D4002C03D0944221D09C421FD00F9A0C
:101FC000102A32D00F9A022A37D01F2C0AD830227A
:101FD0002A5501341F2C05D84A46002A33D02D2219
:101FE0002A550134039602930194009543466246B4
:101FF000FFF756FF05B0C0BCB946B046F0BD621E43
:10200000012C10D00F9F102F0BD014000F9A102A04
:10201000D8D1B206D6D51F2CD4D858222A5501348F
:10202000D3E7023CCBE71400C9E7B206EED41F2C7D
:10203000ECD878222A550134C7E71F2CD2D8603259
:102040002A550134C1E7720703D52B222A550134E2
:10205000C8E73207C6D520222A550134C2E7F0B5B9
:10206000DE4657464E464546E0B593B081468A4621
:10207000089209931CAB10CB1B789B461E9D219B9D
:102080009846002C03D1102342469A439046802361
:10209000DB0046461E4042461A4212D0002C22D097
:1020A00000260EE03033D9B2771C0AAB99552900CF
:1020B000200001F013F8AC4216D31F2F14D83E00B5
:1020C00004002900200001F009F8CBB2092BE9D95E
:1020D0004246920605D54121C918C9B20A39C9B28A
:1020E000E2E76121F8E7270043460693209B05932A
:1020F0001F9B049303955B46029301970AAB0093E1
:10210000099B089A51464846FFF721FF13B0F0BCDF
:10211000BB46B246A946A046F0BDF0B5DE465746DE
:102120004E464546E0B597B00A900B910C929A4600
:10213000209B9946219F22AA13789B46249B0993B2
:10214000259C289B98464A463A4302D11032934335
:1021500098468022D20045461540434613420AD095
:102160004A463A4341D000252E0053460D934D4632
:10217000099B9A461BE02E0053460D934D46099B42
:102180009A4614E03033DAB2731C99460EAB9A5576
:10219000524623002800390000F0DEFFBC4226D85A
:1021A00019D04B461F2B1CD84E4605000F00524637
:1021B00023002800390000F0CFFFD3B2092BE1D96A
:1021C0004246920605D54122D218D2B20A3AD2B27C
:1021D000DAE76122F8E7AA45E3D94E460D9B9A4615
:1021E00008E04E460D9B9A4604E0002602E04E466B
:1021F0000D9B9A4643460693279B0593269B049383
:10220000099B03935B46029301960EAB00935346E2
:102210000C9A0B990A98FFF79AFE17B0F0BCBB46D0
:10222000B246A946A046F0BDF0B5DE4657464E463A
:102230004546E0B591B0804689460C929A461A9C74
:102240001B9D22002B002000290001F010FA00281D
:1022500000D0ECE001225242D44B2000290001F0D2
:1022600001FA002800D0E2E001225242D04B2000C7
:10227000290001F0E1F9002800D0D8E00022002375
:102280002000290001F0D8F9002800D0E4E00694ED
:1022900007958023DB001E9A1A400D921E9A1A425F
:1022A00001D106231C930698079902000B0008929F
:1022B000099303000A00024300D1D9E0080D40054C
:1022C000400DBC4EB44660440A03120B1E00BA4BCC
:1022D00013431F0001F0DEF9B84AB94B01F069F968
:1022E000B84AB94B01F03EF9089009910022B74B6A
:1022F0003000390001F02DF9B54AB64B01F059F91B
:1023000002000B000898099901F02CF901F0DAF9A4
:10231000834601F0BFF906000F00AF4AAF4B01F052
:1023200048F90022AE4B01F01DF901F0CBF90890FD
:10233000AC4AAD4B3000390001F03BF906000F000C
:10234000089801F0A7F9A94AA94B01F032F9020057
:102350000B003000390001F0FCF806000F0002000D
:102360000B0001F026F90A900B91089BA14A9446B4
:10237000634400210022089109921B050993002360
:10238000089332003B003000390001F0EBF80E906A
:102390000F9132003B0000208021C90501F0D9F8DF
:1023A00006000F000022944B0A980B9901F0E3F805
:1023B0000022924B01F0D6F802000B000A980B990C
:1023C00001F0D9F800228E4B01F0CCF802000B008E
:1023D0000A980B9901F0CFF802000B003000390089
:1023E00001F0C0F802000B000E980F9901F0C3F83D
:1023F0000022714B01F0B6F8089A099B01F0D9F858
:1024000006000F0008960997069A079B01F02AF923
:1024100000282FD001235B429C46E3440022774BE7
:102420003000390001F0A7F80890099122E01E9BC6
:1024300004931D9B03931C9B0293009401955346A8
:102440000C9A4946404600F0FFF811B0F0BCBB467C
:10245000B246A946A046F0BD00210022069107928F
:10246000069480231B069C46AC446346079310E702
:1024700000239B465B466333C62B20D804261E9B55
:102480001B0528D5089A099B190011430FD05D4AF6
:102490005D4B0698079901F0DDF800287AD00022FC
:1024A0005A4B0698079901F0C7F8002872D01C9B78
:1024B0005B4506DD5A469B1A013B1C9303E005264B
:1024C000DDE700231C938023DB001E9A1A431E9233
:1024D000002600239B461D9B9E4265D29F1B022324
:1024E0001E9A1A400A921E9A134202D0002E00D061
:1024F00000275B46002B07D0089A099B069807998E
:1025000001F039F8069007910022002320002900ED
:1025100001F092F8002800D07CE03D4B1E9A134059
:10252000049303971C9B0293069B079C00930194C2
:1025300053460C9A4946404600F086F8002E00D1DA
:1025400083E71E9B9B0671D54525441C534602001C
:1025500049462800C0475A46D317D2185A40052387
:102560000593013E0496002303930A3302935B46CE
:10257000DB0F019300925346220049464046FFF785
:102580006EFD0A9B002B00D15FE7020047460C9EC0
:102590001D9D53E01C9B002B9DD00D9B002B9AD0C2
:1025A0001C9B013B1C9396E7002798E7FFFFEF7FFA
:1025B000FFFFEFFF01FCFFFF0000F03FFB799F50A2
:1025C0001344D33FB3C8608B288AC63F0000F83F4E
:1025D00061436F63A787D23F71A379094F930A4084
:1025E0000000E03F1655B5BBB16B0240EF39FAFE73
:1025F000422EE63FFF03000000002C400000244074
:10260000000018402D431CEBE2361A3F80842E4117
:10261000FFF7FFFF069C079D22002900802000068F
:10262000844661440B000692079376E765258CE7A4
:10263000541C534649462020B8472200931BAB4206
:10264000F6D3100001E7C046F0B5DE4657464E46C9
:102650004546E0B595B00690079193469946209F70
:102660001E9A1F9B1000190001F001F8002831D1BB
:1026700001225242BF4B1E981F9900F0DDFF002837
:1026800037D101225242BC4B1E981F9900F0EAFF3D
:1026900000283DD10022B94B1E981F9900F0E2FF9F
:1026A000002850D10022B64B1E981F9900F0C4FF9D
:1026B000002848D1002200231E981F9900F0BCFF7B
:1026C000002850D100239846229B5B0500D4B6E039
:1026D000002458E0229B0393219B02930323019340
:1026E000A84B00934B465A4607990698FFF7D8FB2C
:1026F0000EE1229B0393219B029304230193A24B9F
:1027000000934B465A4607990698FFF7C9FBFFE02E
:102710000423229A1A4022990B4210D09B4B002A84
:102720000FD00422229903912199029101920093E2
:102730004B465A4607990698FFF7B2FBE8E0944BE0
:10274000EDE70322EEE7229B0493219B039302977C
:102750001E9B1F9C009301944B465A46079906986E
:10276000FFF762FDD4E01E9A1F9B0020002100F0BD
:10277000F0FE1E901F9101239846A5E70CAB302276
:102780001A55013F01341F2C01D8092FF6D81E9885
:102790001F9900F097FF050000F07CFF02000B007E
:1027A0001E981F9900F0D5FE7A4BFA009B181A6804
:1027B0005B680A920B9300F0FCFE0890099100F010
:1027C000A5FF060000F062FF02000B0008980999BF
:1027D00000F0BFFE0890099100226F4B00F042FF0D
:1027E00000282ED00136300000F050FF02000B0010
:1027F0000A980B9900F026FF002801D00135002629
:10280000002F2CD1280000F045FF02000B001E987D
:102810001F9900F09EFE06000F0000225E4B00F0A4
:102820000BFF002846D100225B4B3000390000F03E
:1028300019FF00283ED1EB073CD501353AE00627C9
:1028400046E70022544B0898099900F0F5FE00284D
:10285000D6D1002E01D0F307D2D50136D0E7AA4653
:102860001F2C11D8013F0A21300000F037FC651CF5
:1028700030310CAB19550A21300000F02FFC092E25
:102880000ED906002C00EBE755461F2C0CD87B1EFA
:10289000002F09D00CAA302111551F000134F4E794
:1028A0002B0055461C00F0E71F2C03D80CAB2E2242
:1028B0001A5501341F2C10D80A21280000F0E6FB1D
:1028C000661C30310CAB19550A21280000F0DEFBE4
:1028D000051E01D03400EDE734000323229A134093
:1028E000012B1CD01F2C06D84346002B32D00CAB3A
:1028F0002D221A550134229B0393219B02930194AC
:102900000CAB00934B465A4607990698FFF7C8FA56
:1029100015B0F0BCBB46B246A946A046F0BD219B0F
:10292000002B13D04346002B02D10C3313420FD09F
:10293000219B013B2193190003E00CAB30221A5577
:1029400001348C42CED21F2CF7D9CBE72199F8E77E
:102950002199F6E7229B5B0704D50CAB2B221A5575
:102960000134C8E7229B1B07C5D50CAB20221A55A2
:102970000134C0E7FFFFEFFFFFFFEF7F65CDCD41E3
:1029800065CDCDC16C6200107062001060620010F5
:1029900068620010806F00100000E03FF0B5DE4676
:1029A00057464E464546E0B593B082468846934624
:1029B0001193002900D10DE300255646119B18788C
:1029C000002800D109E3252809D06C1C5B462A00A9
:1029D0004146B047119B013311932500EEE70133C7
:1029E0001193002720E001231F430132119201249B
:1029F00018E002231F4301321192012412E0042344
:102A00001F430132119201240CE008231F430132BD
:102A10001192012406E010231F4301321192012478
:102A200000E00024002C09D0119A1378203BD9B281
:102A30001029F6D88B00C849CB589F46119B1A78AD
:102A40001300303BDBB2092B10D92A2A13D00B9488
:102A5000119B1A782E2A1ED0119A1378683BD9B28E
:102A6000122959D88B00BD49CB589F4611A8FFF7B2
:102A700005FA0B90ECE71C9B1A1D1C921B68002B9F
:102A800004DB0B93119B01331193E1E702221743FF
:102A90005B420B93F6E78022D20017435A1C119237
:102AA0005A781300303BDBB2092B0BD92A2AD3D139
:102AB0001C9B1A1D1C921C68002C08DB119B013307
:102AC0001193C9E711A8FFF7D9F90400C4E700245E
:102AD000F4E780235B003B43511C119151786C2932
:102AE00001D01F0018E0C0239B001F430232119247
:102AF00012E080233B43511C11915178682901D089
:102B00001F0009E0C0231F430232119204E080231A
:102B10005B001F4301321192119B1878672818D867
:102B2000252800D24CE20300253BDAB2422A00D924
:102B300046E293008A4AD3589F4680239B001F4356
:102B400001321192E8E780235B001F4301321192AA
:102B5000E2E7782800D933E2692800D230E20200A7
:102B6000693AD2B2012393407E4A134211D11A0628
:102B700000D500E25B0500D422E21C9B1A1D1C92CA
:102B80001B689A46002C00D0B2E101225242534603
:102B90008EE16F280ED006D858283DD0622804D187
:102BA00002239C4608E0782839D010239F43063B37
:102BB0009C4601E008239C46582833D0692803D05E
:102BC000642801D00C2297437A0501D5012297434E
:102BD00069282AD0642828D0BA0500D59FE0FA05D4
:102BE00000D5C1E07A0600D4D3E01C9A111D1C91D7
:102BF0001168FF220A4005970B9B049303946346D8
:102C000002930023019300925B462A004146300064
:102C1000FFF725FA050027E010239C46CCE7102398
:102C20009C46C9E720221743C8E7BA0520D4FA0515
:102C300050D47A0666D51C9A111D1C911168FF228A
:102C40000A40D0171118414005970B9B0493039439
:102C500063460293D20F019200915B462A004146DF
:102C60003000FFF7FCF90500119B01331193A5E635
:102C70001C9A073207218A43110008311C91116800
:102C800053689946DB170C930D930C9A0D9B10001B
:102C900048400E904A4653400F930E980F990C9A55
:102CA0000D9B801A99410E900F9108970B9B0793EB
:102CB000069463460493002305934B46DA0F029271
:102CC000009001915B462A0041463000FFF725FA4B
:102CD0000500C9E71C9A111D1C911268D017111824
:102CE000414005970B9B0493039463460293D20FD4
:102CF000019200915B462A0041463000FFF7AFF990
:102D00000500B1E73A0605D51C9A111D1C91002358
:102D1000D25E96E71C9A111D1C91126891E71C9ACD
:102D2000073207218A43110008311C9108970B9B39
:102D30000793069463460493002305930293536814
:102D40001268009201935B462A0041463000FFF76B
:102D5000E4F9050088E7C046E06D0010246E00101D
:102D6000706E0010419000001C9A111D1C91059777
:102D70000B9B04930394634602930023019313680F
:102D800000935B462A0041463000FFF768F90500D2
:102D90006AE73A0606D51C9A111D1C9112681204A6
:102DA000120C28E71C9A111D1C91126823E7462873
:102DB00019D01C9B0733072293431A0008321C9238
:102DC00004970B9A039202941A685B68009201932D
:102DD0005B462A0041463000FFF736FC0500119B98
:102DE00001331193EAE520231F43E2E7672801D06E
:102DF000472802D180231B011F43452801D04728C3
:102E000001D120231F431C9B0733072293431A0041
:102E100008321C9204970B9A039202941A685B681A
:102E2000009201935B462A0041463000FFF7FCF90F
:102E30000500119B01331193C0E502231A003A40AB
:102E400091463B421DD001241C9B1A1D1C926F1CF5
:102E500018785B462A004146B0474B46002B14D1F8
:102E6000119B013311933D00A8E5571C5B46414679
:102E70002020B04723003A005C1C9D42F5D8150085
:102E8000E2E701232A000B9DF6E73A00B1460B9ECC
:102E900006E0571C5B4641462020C8472C003A00FC
:102EA000651CA642F5D817004E46D9E701330A0043
:102EB0001978002902D0511E002AF7D152469B1AD8
:102EC0008022D200390011408946174202D0A34225
:102ED00000D9230002221100394010913A4209D052
:102EE0002A00250057469A4633004E46994621E06F
:102EF00022004CE62A004546A04606E0541C5B46EC
:102F000029002020B0473B0022005F1C0B9999420A
:102F1000F4D84446A8463B00250057469A4633005D
:102F20004E46994606E01D000137541C5B4641465B
:102F3000C84722003878002804D0002EF4D06B1E39
:102F4000002DF0D1150053464E46109A002A03D1A9
:102F5000119B0133119331E50B9F2A0006E0551CAC
:102F60005B4641462020B04723002A005C1C9F425C
:102F7000F5D81500ECE721233B431C9A111D1C9149
:102F800012680593082304930394083302930023E3
:102F9000019300925B462A0041463000FFF75FF83C
:102FA0000500119B0133119308E56C1C5B462A0058
:102FB00041462520B047119B013311932500FDE4C4
:102FC0006C1C5B462A004146B047119B01331193AC
:102FD0002500F3E40A4B9A46EEE4B2465D450DD374
:102FE0005B465A1E5B4641460020D047280013B07E
:102FF000F0BCBB46B246A946A046F0BD2A00F1E7A8
:103000006D1E001000B585B00290039101210448A7
:10301000009313004A4202A9FFF7C0FC05B000BDAF
:103020006F1E001001480421014B1847B002002018
:103030005530001010B5010018231B881422108889
:10304000984710BD10B5010018231B881622108860
:10305000984710BDF0B5C64600B507000E00002524
:103060000123984600E00135B5420AD2AC003C1974
:103070002068FFF7DFFF20600028F4D10023984686
:10308000F1E7404680BCB846F0BD0000124A936F9D
:103090009B0815D29066D166002905D0FFE7FFE7AF
:1030A000FFE7516F106F704704B580210906C21702
:1030B0005140002800D0C84302F0A6FC002104BD06
:1030C000F0B5146E556E576F166FFFF7E3FF146679
:1030D000556657671667F0BD000000D0114A936F20
:1030E0009B0813D210665166002905D0FFE7FFE761
:1030F000FFE7516F106F704704B5002801D0002022
:10310000C04302F081FC002104BDC046F0B5146E3E
:10311000556E576F166FFFF7E5FF146655665767D4
:103120001667F0BD000000D094464A4A926F92089C
:10313000624601D228E0C046F0B5464E346E756E48
:10314000776F366F00F020F89446424A1466556651
:10315000576716676246F0BD94463E4A926F9208E2
:10316000624601D254E0C046F0B53A4E346E756EF8
:10317000776F366F00F04CF89446364A1466556601
:10318000576716676246F0BD002B24DB11D000297B
:103190003EDA00B5C943404200D1013100F038F8B1
:1031A000C943404200D10131DB43524200D10133D7
:1031B00000BD002AEBD1002801D1002905D0002054
:1031C000C90FC90701D1C043410800B502F014FC82
:1031D0000022002300BD00B500290ADBDB43524278
:1031E00000D1013300F014F8C943404200D101314D
:1031F00000BDC943404200D10131DB43524200D1FE
:10320000013300F005F8DB43524200D1013300BD29
:10321000002923D1002B18D1002A0CD0BC460D4F19
:1032200038667A6600210023FFE7FFE7FFE77A6F41
:10323000386F67467047002801D00748010000B585
:1032400002F0DAFB0022002300BD02000B00002088
:1032500000217047000000D0FFFFFFFF002B00D0CF
:10326000BFE0130C28D1002AE7D080B4114F396693
:103270007A66FFE7FFE730B4040C7B6F396F1B04FD
:1032800023433B667A66FFE7FFE7FFE7C04684B269
:103290007B6F3D6F1B0423433B667A66FFE7FFE7C6
:1032A000C04600232C042D0C7A6F386F0019694139
:1032B000B0BC7047000000D0F0B594460025140E55
:1032C00001D112020835140F01D112010435940FF7
:1032D00001D192000235D40F01D152000135D40B37
:1032E0000134254F7C66254C3C660E0C93B2FFE7FB
:1032F000FFE7FFE73C6F6643360C7703BE46734338
:10330000DF0B5B04C01AB941130C7343DB18C91AF5
:10331000CE086643360CB64493B273431F0F1B01AD
:10332000C01AB941130C73431F0B1B05C01AB941D6
:10333000860D8F023E436643360C092D24DB520A6C
:103340007243801A7703460A6643360C16235B1BCA
:10335000DE40DF40BF1964466643821B7046043579
:1033600006330100D940A840C01900D30131A24260
:1033700006D20023F0BD0000000000D0FFFFFFFFD9
:10338000121B0130F3D3F1E709277F1BFE4064468F
:10339000A2B27243801A00D20139220C7243130C7C
:1033A0001204821A99410B0070460435133701004C
:1033B000F940A840801900D30131002B02D1A2426C
:1033C0000AD2F0BD013000D30131121BFAD2013B09
:1033D000F8D1A24200D2F0BD013000D30131121B5E
:1033E000F7E7F0B51C0C00D080E00CB400251C0AF7
:1033F00004D11B02160E3343120208351C0B04D1F4
:103400001B01160F3343120104359C0B04D19B00A2
:10341000960F334392000235DC0B02D192185B41C8
:1034200001351C00971864410134464F7C66464CB8
:103430003C660E0CFFE7FFE7FFE7C0463C6F6643C4
:10344000360C7703BE4697B27743C01B00D20139D2
:10345000C01B00D201399FB27743C91BC91B170C8F
:1034600077437E04FF0B801BB941CE086643360CC0
:103470000C2D33DBB644120B1F053A431B0B97B2DE
:103480007743C01B00D201399FB27743C91B170C89
:1034900077433E043F0C801BB941860D8F023E43AB
:1034A000664329277F1BFE400C3D7746AF40BF197E
:1034B00030BCA2B2ABB272437343801A9941220C62
:1034C0007243130C1204801A994102000B00013759
:1034D000001BA941F9D2781E0021F0BD0C277F1BEB
:1034E000FE4077467F0BAF40FF19E0E700245D1CEC
:1034F00007D0144F7D663966FFE7FFE7FFE7FFE778
:103500003C6F95B29EB265436643401BB141150CBA
:103510001E0C6543664336042F0C3E432D04401BAE
:10352000B141994204D202000B0020000021F0BDFD
:1035300001D19042F7D3801A994101349942F2D3D4
:10354000F6E70000000000D0FFFFFFFF48404140C9
:10355000484018B41B4B5B68FC46019308BD04DF70
:103560002B38001018B4174B1B68FC46019308BD9C
:1035700000DF353800109446134A926F920809D242
:10358000624618B40F4BDB68FC46019308BD0CDFA4
:10359000ED3A00100C4AF0B5146E556E576F166F69
:1035A0006246FFF7EEFF084A1466556657671667CE
:1035B000F0BD18B4034B9B68FC46019308BD08DFBF
:1035C0009139001064070020000000D0FFB5504082
:1035D0004240504059404B40594000E0FFB5154F24
:1035E0004C00640D03D0BC4204D10C0314D800205D
:1035F000090D09055C00640D03D0BC4204D11C0315
:103600000AD800221B0D1B0501264B4009D44B4054
:1036100003D58B4200D18242FFBD9942FCD190423A
:10362000FFBD0B43DB1803431343F5D0C9434918CF
:10363000FFBD0000FF07000000B5FFF7CFFF80418E
:1036400000BDC04600B5FFF7C9FF01D9002000BD8D
:10365000012000BD00B5FFF7B9FF01D9002000BD72
:10366000012000BD00B5FFF7B1FF804100BD012082
:1036700040054A00121804D85A00121801D8002038
:10368000704701207047002070470000002100288B
:1036900005D17047C1174840401AFAD0C90713B581
:1036A000064B1B6898470CBC441CA2401005120B2B
:1036B0000349091B09051943114310BD6408002083
:1036C0001F04000010B54C00620D8023D218DB00EF
:1036D000D21A5B057E2A10DD9E3A13DACC17090355
:1036E000490819435242D140640001341532202A5E
:1036F00005DAD0400843604310BD002010BD0846E5
:10370000604310BDC80FC018013810BD18B4044B79
:103710005B6AFC46019308BD24DF9D3C001000005D
:103720006407002070B513231C78012C12D0012CE3
:1037300012DC214B214A93642148FFF77BFC214B8B
:10374000186070BD1C491D4A9800815001331F2B21
:10375000F8D9ECE70023FAE71B48FFF773FC0500F4
:103760001A48FFF76FFC023803789B007F2B09DDB6
:1037700012488022290000F0AFFB022C08D0022C56
:10378000DADCD6E7124B134A13483221FEF7BEFAB1
:10379000124B1A88B5231B029A4209D1104B1A8882
:1037A000104B9A4204D1104B1A88104B9A42E6D023
:1037B0000020FEF743FBC046F137001064070020ED
:1037C0004C330000640800205344000053460000BE
:1037D00078620010D06F0010CC62001054380000E6
:1037E000D8380000494600009C38000059460000C7
:1037F00007B56046002800D100BE01880A0A0230E1
:10380000DF2AFAD1C9B2820804D3028840880004B2
:10381000104300E00068024A5050039007BD0000CA
:10382000640700200FB403BC0CBCF0B50124E4070E
:10383000634000E0F0B50C0DCF0F661E3605891B06
:10384000640503D3C943404200D30131640D03D062
:10385000661CF60A07D0E41B00207F00791C89074C
:103860008912803C24031D0DDF0F6E1E36059B1B45
:103870006D0503D3DB43524200D301336D0D03D0FA
:103880006E1CF60A07D0ED1B00227F007B1C9B07F5
:103890009B12803D2D032F1B661B58D4A446202E5F
:1038A00046DA20371400BC401D00BD40F2403341D1
:1038B0002A4380185941CB0F05D0C943C043002289
:1038C00064425041514162464D0D28D10D0D07D142
:1038D00000281FD0241940414941013A0D0DF9D06B
:1038E000640006D3013000D30131002C01D140081F
:1038F0004000013A0BD4941CE40A04D1120511448F
:10390000DB071944F0BDD907204B194300E0D90764
:103910000020F0BD0029DDD1002CDBD1F0BD01324B
:10392000C6074008CD0728434908002EE1D0D9E753
:103930003C2E29DA203E40371400BC4000D0012440
:10394000F24014431A00BB401C43D317ACE7AC460B
:10395000202F08DA20360400B4400D00B540F840AE
:1039600039412843A5E73C2F0CDA203F40360400BC
:10397000B44000D00124F84004430800B1400C4397
:10398000C117EAE710001900002494E70000F07F57
:10399000F0B50C0D661E3605891BE60A6405640D3C
:1039A00002D0651CED0A04D0002001210905803CED
:1039B0002403A4461C0D671E3F05DB1BE70A6405B4
:1039C000640D02D0651CED0A04D0002201231B0502
:1039D000803C24037740644497B484B296B2744325
:1039E000070C7E43150C6F4380B26843361802D330
:1039F000012000043F183004350C00197D41844635
:103A000088B29AB250430C0C62431F0C7C438EB2B6
:103A10007E43921902D301263604A4191604170C0A
:103A20003618674101BC81B29AB25143040C62431B
:103A30001B0C5C4380B25843121802D301200004CF
:103A400024181004130C401863412D185E41002007
:103A5000474106BC88B293B258430C0C6343120C26
:103A6000544389B251435B1802D3012109046418FD
:103A700019041A0C091862416D185641002047417B
:103A800018BCF902720D1143F0026A0D1043ED02E9
:103A90000A0D03D16D1940414941013B124E9B1B58
:103AA0007600B3420ED26D0007D30130002671417B
:103AB0006646354301D1400840001B05C918E4079C
:103AC0002144F0BD0BDA013306D1013004D10131BC
:103AD0004F0D01D04908F2E7E1070020F0BD0136A3
:103AE00031050020EBE70000FF030000F0B51C0DDE
:103AF000671E3F05DB1BE70A6405640D02D0661CE8
:103B0000F60A04D0002201231B05803C2403D025A3
:103B10002D060026F6432E661E096E66CE0FF61998
:103B2000B44649004F0D02D07E1CF60A03D0002097
:103B30000021403F3F033E1BB600B444013F7F05D8
:103B4000C91B49082E6F013676089C02950D254346
:103B50007543ED137543AD1301356D10F603761BF8
:103B60000CB4CC02450D2C43A2B2B3B25A43270C7D
:103B70007B43350C6F43A4B26C431B1902D3012461
:103B800024043F191C041D0CA4187D4124196D4107
:103B9000009A91B2ACB26143170C7C432B0C5F438B
:103BA00092B25A43A41802D301221204BF1822046D
:103BB000230C52187B41019C6C431B19520ED901F6
:103BC0000A434401A01A81B2B2B2514303145A43CA
:103BD000360C734387B27743D617D21900277E413C
:103BE00036049B191704160C7F185E417316ED18E6
:103BF000F301002680337541A90F06D16400690ADC
:103C0000E8055B0A184309D22FE00422944480336C
:103C10007541A90AA8059B0A184326D3404149418A
:103C20002404009A019B0D005543641B4343E41A8E
:103C300095B286B27543170C7E43030C5F4392B274
:103C40005A43B61802D301221204BF183204330CAF
:103C500052197B4152429C41002C02D40022013077
:103C600051414008CA071043490802B06246D707CD
:103C70009210084BD218084B9A4203D212058918A9
:103C8000C919F0BD0020002A01DC3900F0BD013364
:103C90001905F5E7FD030000FE070000002200B54E
:103CA000203200F004F8080000BD000000220B15CF
:103CB0000AD410B5944600F031F81414013400DA37
:103CC0000021CB17144C204700200021704762448C
:103CD000343A0CD40C2A07DA040091409040524246
:103CE0002032D440214310BDD843D94310BD2032E7
:103CF00007D40C469440524220321141D040204318
:103D000010BD0800C917203203D45242203210419E
:103D100010BD1800190010BDCF3C00100A0DCC0FCB
:103D2000531E1B05C91A520503D3C943404200D391
:103D30000131520D03D0531CDB0A07D0121B0020A7
:103D40006400611C89078912803A1203014BD21A60
:103D500070470000FF03000051434343C9188C46DD
:103D6000110C83B24B4310B4040C614392B280B285
:103D7000504362431C041B0C001910BC594113042E
:103D8000120CC018514161447047000070B51323F4
:103D90001E782A48FFF756F90500012E11D0012E92
:103DA00009DDAB1E1B789B007F2B40DD2448802261
:103DB000290000F091F82348FFF73CF9224B1860E6
:103DC00070BD1F485422290000F086F81F4B1A8846
:103DD0001F4B9A421CD1A7239B011A881D4B9A4264
:103DE00016D11D4B1A881D4B9A4211D11C4B1A88B3
:103DF00094239B019A420BD11A4B1A881A4B9A4270
:103E000006D11A4B1A681A4B9A4201D1152307E0C2
:103E10001848FEF713F8184C094A99008C500133E2
:103E20001F2BF8D9144B064A1362D361B7E7134B23
:103E3000134A14484221FDF769FFC046534600006B
:103E4000680800204C33000064080020EE290000C0
:103E5000C40F0000C20D0000962B0000C0B500008A
:103E6000182B0000CC2A000010B50000FC2C00002C
:103E700051ED8764B0610010893E00101C63001092
:103E8000E46F00105063001007B56046002800D1B1
:103E900000BE01880A0A0230DF2AFAD1C9B28208BC
:103EA00004D3028840880004104300E00068024AFE
:103EB0005050039007BD000068080020014804210D
:103EC000014B1847C002002055300010014B1B6801
:103ED00018470000C0020020014B5B681847000033
:103EE000C002002010B50300080011001B689847AD
:103EF00010BD0000F8B507000D001600437D002B33
:103F000002D0002400200CE003681100280098472C
:103F10002DE03B7D10E03B68154802219847601C6E
:103F20000134B44214DA002CF3DD2B19013B1B7869
:103F30000D3B5A425341DBB22A5D0A2AF0D1002BD5
:103F4000EED1A042E7DA3B68211A28189847E2E749
:103F5000B04203DA3B68311A28189847002E06DD74
:103F6000AD19013D2B780D3B5A4253413B75F8BDCD
:103F70001C70001070B505000368002B16D00C4BA8
:103F80001C6805E0290004C92000FFF7B3FF24697D
:103F9000002C09D02368002BF9D0064B1B68002B9E
:103FA000F0D0A342F3D1EDE700232B6070BDC046F3
:103FB000980400209C04002070B505000C000B68DC
:103FC000802B05D023685A1C2260E418257170BD2F
:103FD0000800FFF7CFFFF5E710B5002B02DB02600A
:103FE000436010BD024B034A03483F21FDF78EFE9C
:103FF000785C001020700010945C001010B582B046
:104000000400FDF769F902000B006846FFF7E4FFC2
:10401000009A019B22606360200002B010BD000086
:1040200070B582B0060014001D00FA229200002331
:1040300006980021FFF790FE02000B0012196B4159
:10404000002B09DB6846FFF7C7FF009A019B32602F
:104050007360300002B070BD01225242004BF1E7A4
:10406000FFFFFF7F30B585B004000D0002A8FFF709
:10407000C5FF029A039B00952000FFF7D1FF2000A7
:1040800005B030BD00B583B0FA2189006846FFF75E
:10409000E9FF009A019B024801F0BEFC03B000BD9D
:1040A000F402002010B5024801F09EFC10BDC0468D
:1040B000F4020020F0B5CE46474680B583B0060036
:1040C0000D0090461C00FFF7DDFF81466B1C05D0FC
:1040D000002C08D0194F1A4B1C6807E0300001F083
:1040E00053FC0500F4E7174FF5E72469002C17D0BF
:1040F0002368002BF9D0144B1B68002B01D0A3427E
:10410000F3D12A0031002000B8474346002BECD001
:104110006B46D91D0A230B7001222000B847E4E743
:104120004B46002B07D16B1E9D41E8B203B0C0BCCB
:10413000B946B046F0BDFFF7B5FFF4E7E53E001025
:1041400098040020F53E00109C040020094A01E07C
:1041500010331A001368002B08D08342F8D10029CD
:1041600007D1036913600023036102E0002900D036
:10417000106070479804002010B5064B1C6801E0E1
:1041800098472469002C03D06368002BF8D1F8E726
:1041900010BDC0469804002070B5050001F0F4FB86
:1041A00004000023012201002800FFF783FFFFF72E
:1041B000E3FF200070BD000070B5A2B004000E0047
:1041C000FFF760FF0500002301930A483300220037
:1041D00001A9FEF717FF040001A8FFF7CBFEFFF7C8
:1041E000CBFF002D02D1200022B070BDFFF75AFF97
:1041F000F9E7C046B93F00100FB400B583B004A979
:1042000001C90191FFF7D8FF03B008BC04B01847FB
:1042100010B500F0FFF8012010BD000010B582B00D
:104220000C00144BC3185A425341134A5B009B5E67
:104230008B4204D06B46DA1D1470002115E06B46EA
:10424000DA1D0D23137000210029F3D183699B0629
:10425000FCD41378036001310132F5E783699B06D2
:10426000FCD413780360013101320029F6D002B08A
:1042700010BDC0460080FCBF7C09002082B0002237
:104280006B46D91D06E08369DB06FCD403680B701E
:1042900001320131002AF6D06B46D87902B070475E
:1042A00070B506000D00002405E0315D034B186871
:1042B000FFF7B4FF0134AC42F7DB70BD800900208A
:1042C000F8B506000D00002705E07C1CF719FFF784
:1042D000D5FF38702700AF4204DA0E4A10688269B1
:1042E000D206F2D50C4A1268002A0CD0094A12688C
:1042F0005021916310003430526B183911408022E4
:10430000520102431160002F01D03800F8BD033F75
:10431000FBE7C046800900202804002010B5064BAA
:104320001B68002B06D0054A126800219163044ADD
:104330001068984710BDC04628040020800900205E
:104340002C04002070B505000E001C4B1A681C4B95
:10435000D31859424B4114331C0000281ED0194B6E
:104360001B68002B04D0174B1D60174B1E6070BDDF
:1043700016492000FCF7E2F801212000FCF7CEF8F6
:104380000E4B1B6850229A63190034315B6B183A4C
:104390001A4080235B010B431A60E4E7094B1B685A
:1043A000002BE0D00023936300212000FCF7B6F837
:1043B00006492000FCF7ECF8D5E7C046800900204C
:1043C0000080FCBF280400202C0400201D430010A6
:1043D00070B50D001C000D4B1860002A0BDA002C84
:1043E0000EDA0A4B18682900FDF794FA08480121F3
:1043F000FFF7ACFE70BD02211000FBF793FFEEE764
:1044000002212000FBF78EFFEBE7C0468009002069
:10441000D002002010B5064B1B78064B1B78E1211B
:104420000123002249020448FFF7D2FF10BDC04615
:10443000587200105472001000400340124A530793
:104440001FD0D11D0723994380239B025B1A9B1821
:104450000A000E48026000214160D318083B072083
:1044600083430B48036059601960991A51601360C7
:10447000084B1960084B1960084B802212061A601D
:10448000704780239B02E4E784090020D8090220BA
:10449000D4040020AC090220A8090220A0090220AF
:1044A00010B5124B1A001B688342FBD35168541895
:1044B000844208D041684418A34209D00360904266
:1044C00000D0106010BD4068091851601000F1E77D
:1044D000074C2468A34206D05B68C9184160136882
:1044E0001B680360EBE70460E9E7C046D8090220D7
:1044F000D404002070B5040000F02CFF384B1B687A
:10450000002B1BD0374B1B68234251D1631E0A334B
:1045100050D822000832640707D0072311009943BE
:104520000B00083393424CD91A00002A4BD02E4B73
:104530001B68934249D32D490C6804E0FFF77EFFC6
:10454000E0E721001C006368934202D22368002B3D
:10455000F7D1234B1B68A34239D00D680835236877
:104560000B6063689B1A102B06D9A018410719D15C
:1045700043606260FFF794FF62681B490B689B1AF7
:104580000B601B4909688B4201D219490B60154B1E
:104590001B681343636000232360164A13680133CA
:1045A000136008E0144B154A1548CD21FDF7AEFB0A
:1045B000002500E0002501F0DBF86B0709D1280099
:1045C00070BD0025F7E70025F5E70025F3E7002596
:1045D000F1E70C4B094A872109484900FDF796FB92
:1045E000D4040020A0090220A8090220D809022032
:1045F000AC090220B8090220186400104C700010A9
:104600004C64001084640010084B5B6A994209D81E
:10461000064A926A824207D2994201D0012002E002
:10462000002000E0002070470120FCE7004005402A
:1046300010B5002B02DB0260436010BD024B034A41
:1046400003483F21FDF762FB785C00105C700010AE
:10465000945C001010B582B00400FCF73DFE02002F
:104660000B006846FFF7E4FF009A019B226063603D
:10467000200002B010BD000030B583B004000D0072
:104680006846FFF7E7FF009A019B20002900801A87
:1046900099410A4A01235B4280185941002907DCED
:1046A00002D0002003B030BDFA239B009842F8D31B
:1046B000FA2292000023FEF737FDF3E718FCFFFF14
:1046C00010B5D0231B061A680A4B9200D358002B52
:1046D00008D1094B802252051A60BFF34F8FBFF3F8
:1046E0006F8F10BD054B064A6C210648FF31FDF760
:1046F0000DFBC0465C07002004ED00E0C064001024
:10470000DC700010F0640010D0231B061B68084A00
:1047100099008958002909D09B0000209850054A2B
:104720009B58BFF35F8F086083F3108862B67047B1
:104730005C0700208C09022010B5D0231B061B68E3
:10474000984204D0D0231B0600225A6510BD034BAB
:10475000034A88210348FF31FDF7D8FA3465001079
:10476000D0700010F064001010B50A4B1B78FF2BBE
:104770000CD0EFF30580002805D0D0231B061B6862
:104780004000C01810BD00F07DFCFBE7D0231B06E5
:104790001868F7E7E802002010B582B0EFF3058350
:1047A000DBB2002B28D1224B1B78FF2B2AD0D02341
:1047B0001B061B681F4A9C00A258002A2BD10468C4
:1047C000002C2ED01B4A9B009C501B4A995003681A
:1047D0001A4A944663449B10012199400B021943E5
:1047E000090A174B186801235B420093002301223A
:1047F00000F022F902B010BD124B134A13481449BD
:10480000FDF784FA0368BFF35F8F00221A6081F31B
:10481000108820BFEEE70F4B0B4A0C480E49FDF7FE
:1048200075FA0E4B084AC42108488900FDF76EFA54
:10483000E80200205C0700208C09022000FFFF2F07
:10484000A409022050650010AC700010F064001044
:1048500002030000C06400100B030000B0650010EC
:1048600010B582B00C0002681B4B9C46624492104B
:10487000012393401A021343190A184B1B78FF2B8C
:1048800020D040BF0368BFF35F8F00221A6084F31B
:104890001088EFF30583DBB2002B04D1104B1868AE
:1048A00000F05AF916E0002301930D4B186801AA95
:1048B00000F0A2F9019B002B0CD00A4B802252057C
:1048C0001A6007E040BF0368BFF35F8F00221A60E1
:1048D00084F3108802B010BD00FFFF2FE802002013
:1048E000A409022004ED00E0F0B583B006000F003B
:1048F00015001C00EFF30583DBB2002B2ED1314BEA
:104900001B78FF2B30D0D0231B061A682E4B920049
:10491000D358002B35D128002100FFF7ADFE031E30
:104920003DD03068002833D0D022120612682649C4
:104930009200505025495750326825498C466244B0
:104940009210012191400A021143090A214A10687C
:1049500000930023012200F06FF827E01E4B1F4A4E
:104960001F482049FDF7D2F90368BFF35F8F00228B
:104970001A6081F3108828002100FCF727FC04004E
:104980001AE0194B154AD42115488900FDF7BEF9E4
:10499000164B124AD62112488900FDF7B7F9336841
:1049A000BFF35F8F00221A6087F310882800210070
:1049B000FFF72AFE041E02D0200003B0F0BDFFF76F
:1049C0007FFEF9E7E80200205C0700208C09022046
:1049D00000FFFF2FA4090220506500107470001022
:1049E000F064001046030000C0640010B0650010C1
:1049F00010B500F014F8014B186010BDA409022096
:104A0000002A03D1014206D1100003E00840884289
:104A100003D0002070470120FCE70120FAE710B521
:104A20001C20FFF767FD041E03D0002308C000F020
:104A3000EFF8200010BD0000F0B5C64600B5060036
:104A40000D001700984600282FD080235B04994260
:104A500032D2002937D000F05DFF002802D1069B3A
:104A6000002B37D100F076FC346842462900200044
:104A7000FFF7C6FF002834D0002F48D02300AB43F7
:104A800033600023069300F073FE069B002B08D0D2
:104A900000283FD000F056FF040083013DD52402DA
:104AA000240A200080BCB846F0BD254B254AA4212D
:104AB00025484900FDF72AF9244B224A4A21224879
:104AC000FF31FDF723F9224B1E4AA5211E4849005C
:104AD000FDF71CF91F4B1B4A4E211B48FF31FDF708
:104AE00015F9069B002BCED0002F0DD10021434697
:104AF000002B02D08023DB0419432943301D069A82
:104B000000F05CFC0024BEE780214904EFE70023AD
:104B10000693B8E700F0D6FCBCE700F0E7FC346889
:104B2000424629002000FFF76BFF002804D0002F29
:104B300002D02300AB43336000F010FDAFE7C04666
:104B4000C4650010FC700010D0650010FC650010FA
:104B5000246600103C660010F8B504000D00002823
:104B60000DD080235B0499420FD206000C3600F072
:104B7000F1FB206923682B432360002718E0174BC3
:104B8000174A18481849FDF7C1F8184B144A8821EC
:104B900014488900FDF7BAF821681940994206D1F6
:104BA00011E0236880218904194300F069FE280080
:104BB000B0420CD04568026813021B0A5101EBD4C5
:104BC00021680B42F3D0D201EBD51F43E9E72368FC
:104BD000BB43236000F0CCFD2068F8BDC465001025
:104BE000E8700010D06500101F02000090660010F1
:104BF00010B5FFF7B1FF10BD10B51300034C0A004C
:104C00000100200000F0ACFE10BDC046F14B0010CA
:104C1000030008334360012252428260C360036193
:104C200000230360704743684B609A688A60516054
:104C300099600861036801330360704730B50D68FF
:104C40006B1C10D0030008331C005B681A68AA4272
:104C5000FAD963684B6099608C6061600861036891
:104C60000133036030BD0469F3E70369416882687A
:104C70008A60416851605A68824206D0002202610F
:104C80001A68013A1A601868704782685A60F5E736
:104C900070B504001500866B026C002A0CD1036805
:104CA000002B03D000200136A66370BD806800F0A1
:104CB000BBFB0023A360F6E7002D0DD14068FFF792
:104CC0000BF96368226C9B186360A26893421AD345
:104CD000236863602800E6E7C068FFF7FDF8E36833
:104CE000226C51429B1AE3602268934202D2A3686D
:104CF0005B18E360022D01D00020D4E7002E04D021
:104D0000013E0020CFE72800CDE70020CBE70000E0
:104D100070B582B00190846C002C0AD0A26BE36B5A
:104D20009A420CD2A26B93420FD80025280002B001
:104D300070BD174B174A18481849FCF7E7FF184B86
:104D4000144A15481749FCF7E1FF4523E65C76B2A3
:104D5000002201A92000FFF79BFF0500731C06D06D
:104D60007F2E0FD0013676B24523E654DEE7636A24
:104D7000002BDBD02000243000F0D6F90028D5D05D
:104D80000125D3E7084B034A03480849FCF7BEFF57
:104D9000B46600102C710010C8660010A80B00004B
:104DA000EC660010A90B000034670010C90B00006E
:104DB000F0B5CE46474680B583B004000F0001929F
:104DC0001D0000281CD0002921D0022D02D1E36B48
:104DD000012B25D1EFF3108872B600F087FBA26B90
:104DE000E36B9A4222D3022D20D0002400F0B6FBC0
:104DF00088F31088200003B0C0BCB946B046F0BDAF
:104E00002F4B304AF92130488900FCF77FFF036CB3
:104E1000002BDAD02D4B2B4A2B482D49FCF776FF7F
:104E20002C4B284A28482C49FCF770FF4523E65CA8
:104E300076B2A36B99462A0039002000FFF728FFBD
:104E4000731C07D07F2E2BD0013676B24523E65453
:104E50000124CBE7A36C002B10D0022D02D14B46CE
:104E6000002B23D12000FFF753FF002820D0019A08
:104E7000002A1FD0012313600124B7E7636A002BC7
:104E800001D10124B2E72000243000F04DF90028C0
:104E900012D0019A002A11D0012313600124A5E742
:104EA0000E4B084A08480E49FCF730FF01249DE7E5
:104EB00001249BE7012499E7012497E7012495E762
:104EC0005467001010710010C86600105C67001075
:104ED000E5030000B4670010E6030000346700102B
:104EE0006F040000EFF3108172B6D0231B061A681E
:104EF000024B9200D05881F310887047FC090220C1
:104F0000084B1B681B68002B04D1074B012252423F
:104F10001A607047034B1B68DB681A68024B1A6003
:104F2000F7E7C046D0040020B009022010B5040005
:104F3000EFF30583DBB2002B04D0D0231B061B68E4
:104F400098420FD00F4BA200D3589B6B023308D06E
:104F5000D0231B061B689C4209D10B4B1400012275
:104F6000E25010BD084B84000122E250F9E7200016
:104F7000FFF7E2FB034BA400E358022252429A637C
:104F8000EFE7C046C8040020FC09022070B50128E4
:104F900019D8D0231B061C6801238340FF2B18D887
:104FA000002A38D00A68002A19D0BFF35F8F2B4A35
:104FB000125C002A29D1294A0121115428490A5D8D
:104FC00013430B5570BD274B274A2848B221FCF7E5
:104FD0009DFE274B244A2548B521FCF797FE204A21
:104FE000125D13420DD01D4B1B5CFF2B03D01B4ADF
:104FF00001331354E6E71F4B1B4A1C48BC21FCF746
:1050000085FE0A68002AD0D1FBE71B4B164A1748D9
:10501000C321FCF77BFE124A155D2B4211D00F4ACB
:10502000125C002A13D0013AD2B20C4E3254002A3C
:10503000C8D10B4A9D431555BFF35F8F01230B6009
:10504000C0E70E4B084A0948C721FCF75FFE0C4B2E
:10505000054A0648C821FCF759FEC04688090220C7
:10506000840902203068001014720010506800108B
:10507000A0680010B4680010E06800100869001013
:1050800034690010EFF3108172B6D0231B061A6842
:10509000024B9200D05881F310887047C80400205A
:1050A000F8B504000D00FFF7EDFF036D002B07D0EE
:1050B000276B002D00D1013F00220120404206E075
:1050C000134B144A14481549FCF720FE0132012AFB
:1050D00018DC134B9100CD582E6BCD58ED6B761B21
:1050E000CB589B6B012BF1D80E4BCB58002BEDD13D
:1050F000B742EBDB6168013393400B42E6D010000E
:105100003700E3E7012800D9F8BDFFF70FFFFBE701
:105110005C690010287200100C680010DA020000B0
:10512000C8040020FC09022070B5C368DC68002CAC
:1051300029D025001C352800FFF797FD174B1B6869
:10514000002B26D1143D2800FFF78FFD236B144A56
:105150001268934201D9124A13609800C018800067
:10516000104BC0182900FFF75EFD00212000FFF75B
:1051700097FFD0231B061A680B4B9200D0580028CB
:1051800000D0012070BD094B094A0A480A49FCF7C2
:10519000BDFD0A482900FFF746FDE6E79809022011
:1051A0009C090220DC040020FC0902209069001008
:1051B000987100100C680010CC0F0000C00902208C
:1051C00070B505000C001C4B1E68FFF75BFF7D23CC
:1051D0000022C254FFF756FF0830FFF746FD6B1C54
:1051E00001D1002C0FD17419FFF74CFF8460A64247
:1051F00012D9124B1C68FFF745FF0100083120004F
:10520000FFF71CFD70BDFFF73DFF010008310C4B9F
:105210001800FFF708FDF5E70A4B1D68FFF732FF9E
:10522000010008312800FFF709FD074B1B68A34266
:10523000E8D9054B1C60E5E7F4090220D8040020FA
:10524000E0090220D0040020B009022070B5EFF37D
:105250000583DBB2002B62D1D0231B061A68304BCA
:105260009200D55826E02F4B2F4A30483049FCF7A2
:105270004DFD00222F490120FFF788FEAB6B023362
:1052800032D1FFF741FAAB6B023334D0EFF3108326
:1052900072B6012227490120FFF778FE0122264934
:1052A0000020FFF773FEFFF7EDFE0465234B1E6041
:1052B000002C26D0AB6B023331D12C6D1F4B1E68F6
:1052C000A319012BCFD11D4B00221A60002CD0D086
:1052D00000232B6518490020FFF758FE00221549CE
:1052E0000120FFF753FEC9E7154B0F4AA6210F48CF
:1052F0008900FCF70BFD134B0B4A0C481249FCF7D5
:1053000005FD002E05D000220B490020FFF73EFED0
:10531000D0E70E4B044A05480D49FCF7F7FC70BD79
:10532000C8040020A0690010F87100100C6800107B
:10533000870200003C0100D0380100D0980902200B
:10534000D8690010106A00109F020000486A00101F
:10535000AA02000070B5154B1B68002B00D170BD70
:10536000EFF3108672B6012211490120FFF70EFEFD
:10537000104D012229000020FFF708FE0E4C236883
:1053800001332360002229000020FFF7FFFD23687E
:10539000012B02D086F31088E1E7FFF773FE036D5F
:1053A000002BF7D1FFF752FFF4E7C046D4090220E3
:1053B0003C0100D0380100D09809022070B50400EB
:1053C0000D001600002815D0114B1B68002B18D0BB
:1053D000FFF758FE80231B062B43C361FFF752FEE5
:1053E00001001C312000FFF71EFC01213000FFF7F7
:1053F000E7FE70BD074B084AF82108480901FCF791
:1054000085FC074B044A05480649FCF77FFCC0466B
:10541000980902208C6A0010B47100100C6800100A
:10542000986A0010840F000070B5041E36D0FFF794
:1054300029FE84420CD1236E002B0FD0013B236642
:10544000216BE26D91422BD0002B0DD0002026E085
:10545000144B154A15481649FCF758FC154B124ACF
:1054600012481549FCF752FC250008352800FFF7C3
:10547000FCFBE36D23632022D21AE2610F4A12681B
:10548000934201D90D4A13609800C01880000C4B5C
:10549000C0182900FFF7C7FB012000E0002070BD05
:1054A0000020FCE7B46A00105C7100100C6800106A
:1054B00012140000DC6A0010131400009C09022082
:1054C000DC04002010B5FFF7DDFD036D002B07D0D5
:1054D000D0231B061A68044B92000121D15010BD45
:1054E000FFF7EEF8FBE7C046FC09022010B5EFF32A
:1054F000108372B6154B1B68002B00D110BDFFF74F
:10550000C1FD036D002B09D1EFF30583DBB2002B46
:1055100015D001220E490020FFF738FDFFF7B2FD3C
:10552000036D013303650B4B1B68002BE6D1FFF7BE
:10553000A9FD036D012BE1D1FFF788FEDEE7012213
:1055400005490120FFF722FDE3E7C046D409022008
:10555000380100D0980902203C0100D010B51C4B46
:105560001B68002B00D110BDFFF78CFD036D002BD5
:1055700026D0FFF787FD036D002BF4D0FFF782FDE7
:10558000036D013B0365FFF77DFD036D002BEAD141
:10559000002210490020FFF7F9FCEFF30583DBB28E
:1055A000002BE0D100220C490120FFF7EFFCFFF7B0
:1055B000ABF8FFF797FC0028D5D0FFF781F8D2E7CA
:1055C000064B074AA82107484901FCF79FFBC04644
:1055D000D4090220380100D03C0100D05C690010E1
:1055E000487100100C680010F0B583B0082200214B
:1055F0006846FEF76BFCFFF779FF4E4B1D68002DE8
:1056000000D08CE04C4B1F6801371F60002F10D179
:105610004A4B1B681B68002B11D1484A1168484B44
:10562000186810601960474A136801331360FFF768
:1056300067FC454B1B68BB421BD92B003AE0434B30
:10564000434A44484449FCF761FB3F4B0122524224
:105650001A60F2E73C4A1360EFE793009B1898004A
:105660003E4BC0183100FFF7DEFA01212000FFF7A2
:1056700017FD324B1B681B68002BE6D02F4B1B68B5
:10568000DB68DC68A3689F42E4D32600083630005C
:10569000FFF7EBFAE36A002B03D020001C30FFF782
:1056A000E4FA226B2E4B1B689A42D6D92C4B1A6017
:1056B000D3E70133012B0FD82A4A99008A58106B7F
:1056C00026498200121890004258012AF1D99A0006
:1056D000012168461150ECE72B0000E00133012B5B
:1056E00009D8214A99008A58002AF7D00A000121D6
:1056F00068461150F2E7D0231B061E68002401E023
:1057000001240135012D0FD8AB006A469B58002BB0
:10571000F7D0B542F4D02800FFF708FCF1E7134AB0
:105720001368013313600024FFF718FF200003B053
:10573000F0BDC04698090220F4090220D0040020E0
:10574000D8040020B4090220B0090220F46A001035
:10575000D47100100C680010E10D0000DC04002082
:105760009C090220C8040020FC090220BC09022078
:1057700070B5364B1C68002C01D1200070BDFFF7BE
:10578000B5FED0231B061E68314B1B68002B11D0C1
:105790002F4C2368013B236000222E490120FFF794
:1057A000F5FB2368002B4CD12B4B1B68002B27D11A
:1057B000002447E0294B2A4A2A482B49FCF7A6FA3D
:1057C0009800C0188000294BC0182900FFF72BFA59
:1057D000274B1B68002B15D0254BDB68DC682000AD
:1057E0001C30FFF742FA250008352800FFF73DFA84
:1057F000236B204A12689342E2D91E4A1360DFE706
:105800000024E5E7002C01D0FFF77AFB1A4B1C6857
:10581000002C09D1194BB600F458002C12D00124E9
:1058200010E0013C002C08D0FFF7DEFE0028F8D085
:10583000124BB2000121D150F3E70F4B00221A6046
:10584000E8E70024FFF78AFE97E7C046D409022064
:10585000980902203C0100D0940902206C6B0010D2
:10586000E87100100C680010D20B0000DC0400206E
:10587000C00902209C090220BC090220FC09022068
:1058800070B51B4B1B68002B25D080231B060B43D8
:105890000360C468002C24D0FFF7E7F92500083521
:1058A0002800FFF7E2F9236B124A1268934201D9EC
:1058B000104A13609800C01880000F4BC0182900D0
:1058C000FFF7B1F9FFF712FE00212000FFF7E8FB18
:1058D000FFF744FE70BD094B094A0A480A49FCF724
:1058E00015FA0A4B064A07480949FCF70FFAC04661
:1058F000980902209C090220DC040020846B00101F
:10590000747100100C680010FE0F00009069001008
:105910000610000010B5094B1B68002B02D10124B2
:10592000200010BDFFF7E2FD054B1B68002B03D1E3
:105930000224FFF713FEF3E70024FAE7D40902205C
:105940009809022070B5FFF79DFBC469FFF79AFB29
:10595000056BFFF797FB20235B1BC361200070BD25
:1059600010B584B014001A0002235B42009301902A
:1059700002910394034B186800236946FFF718FA55
:1059800004B010BDF809022010B583070AD0030047
:10599000032102E001330B4205D01A78002AF9D125
:1059A000181A10BD030019680C4A0D4C8A188A4356
:1059B00022420FD15968094A04338A188A43224285
:1059C00008D15968054A04338A188A432242F1D023
:1059D00000E001331A78002AFBD1E1E7FFFEFEFE6A
:1059E00080808080F8B5C04601B40248844601BC7E
:1059F000604700BFA901002001B40248844601BCF1
:105A0000604700BFE901002001B40248844601BCA0
:105A1000604700BFE901002001B40248844601BC90
:085A2000604700BF7501002082
:105A280048656C6C6F2C20776F726C6421000000E5
:105A380030783163203D3D20282A696E7374293EF1
:105A48003E313175000000002F686F6D652F746955
:105A580061676F2F2E7069636F2D73646B2F73648A
:105A68006B2F312E352E312F7372632F7270325F88
:105A7800636F6D6D6F6E2F68617264776172655FB9
:105A88006972712F6972712E6300000064656C740D
:105A980061203E3D202D3230343820262620646592
:105AA8006C7461203C3D203230343620262620217B
:105AB8002864656C746120262031290021286465DA
:105AC8006C7461203E3E2031317529006375727215
